:020000040800F2
:10000000681C0020CD020008C7390008FF33000833
:10001000C5390008DB1D0008A542000800000000EB
:100020000000000000000000000000003502000891
:10003000DD1D000800000000790200087941000879
:10004000E7020008E7020008E7020008E7020008EC
:10005000E7020008E7020008DF1D0008031E000891
:10006000091E0008E7020008E7020008E70200088E
:10007000E7020008E7020008E7020008E7020008BC
:10008000E7020008E7020008E7020008E7020008AC
:10009000E7020008E7020008E70200080F1E000858
:1000A000E7020008E7020008E7020008E70200088C
:1000B000E7020008E702000821420008E702000802
:1000C000E7020008E7020008E7020008E70200086C
:1000D000E7020008E7020008E7020008E70200085C
:1000E000E51D0008E7020008E702000800F002F83A
:1000F00000F090F80AA090E8000C82448344AAF132
:100100000107DA4501D100F085F8AFF2090EBAE82F
:100110000F0013F0010F18BFFB1A43F0010318473B
:10012000845C0000A45C0000103A24BF78C878C149
:10013000FAD8520724BF30C830C144BF04680C60ED
:10014000704700000023002400250026103A28BF35
:1001500078C1FBD8520728BF30C148BF0B60704739
:100160006E2900F07B82702900F0C583662905F0B6
:10017000FA81652905F0F781672905F0F481612985
:1001800005F0F38103681B0A28BF41F0800169294B
:1001900000F02882642900F02582752900F022826F
:1001A0006F2900F05283782900F09183E92900F04B
:1001B000ED82E42900F0EA82F52900F0E782EF29D8
:1001C00000F04F83F82900F090830368DB0928BF13
:1001D00041F08001632901F09380732901F0988038
:1001E000E32901F0A380F32901F0A88000207047E3
:1001F0001FB501F0F5F804000020002104F042FFD3
:10020000401C60600020002104F026FFE0601FBD5C
:1002100010B510BD01F0B6F81146FFF7E9FF04F084
:100220002FF901F093F903B4FFF7F2FF03BC01F0DB
:10023000DBF90000224B19680868B0E8F00F80F382
:100240000988BFF36F8F4FF0000080F311884EF0E4
:100250000D0E70470000000006480068006880F33B
:10026000088862B661B6BFF34F8FBFF36F8F00DFB0
:1002700000BF00BF08ED00E0EFF30980BFF36F8F10
:100280000F4B1A6820E9F00F106008B54FF05000CE
:1002900080F31188BFF34F8FBFF36F8F04F02AFDF7
:1002A0004FF0000080F31188BDE808401968086825
:1002B000B0E8F00F80F30988BFF36F8F704700BF7D
:1002C00018000020EFF305807047000009488047C0
:1002D00009480047FEE7FEE7FEE7FEE7FEE7FEE728
:1002E000FEE7FEE7FEE7FEE704480549054A064B40
:1002F000704700001F420008ED000008681600204B
:10030000681C002068180020681800207CB51D4675
:1003100016460C00009001D02044401E074B7B4441
:100320002A4669460190304600F0B1F905461CB1F5
:100330000020694600F0BEF928467CBD9D03000000
:1003400040EA010310B59B070FD1042A0DD310C852
:1003500008C9121F9C42F8D020BA19BA884201D9A4
:10036000012010BD4FF0FF3010BD1AB1D30703D0EC
:10037000521C07E0002010BD10F8013B11F8014BA2
:100380001B1B07D110F8013B11F8014B1B1B01D1BE
:10039000921EF1D1184610BD032A40F2308010F0B1
:1003A000030C00F0158011F8013BBCF1020F624410
:1003B00098BF11F801CB00F8013B38BF11F8013BA1
:1003C000A2F1040298BF00F801CB38BF00F8013B4E
:1003D00011F0030300F02580083AC0F0088051F8BE
:1003E000043B083A51F804CBA0E80810F5E7121DC9
:1003F0005CBF51F8043B40F8043BAFF30080D207E8
:1004000024BF11F8013B11F801CB48BF11F8012BB3
:1004100024BF00F8013B00F801CB48BF00F8012BD6
:10042000704710B5203AC0F00B80B1E81850203A60
:10043000A0E81850B1E81850A0E81850BFF4F5AF84
:100440005FEA027C24BFB1E81850A0E8185044BF0E
:1004500018C918C0BDE810405FEA827C24BF51F87B
:10046000043B40F8043B08BF7047D20728BF31F86F
:10047000023B48BF11F8012B28BF20F8023B48BFC0
:1004800000F8012B70474FF000020429C0F01280E1
:1004900010F0030C00F01B80CCF1040CBCF1020F37
:1004A00018BF00F8012BA8BF20F8022BA1EB0C010C
:1004B00000F00DB85FEAC17C24BF00F8012B00F802
:1004C000012B48BF00F8012B70474FF0000200B528
:1004D000134694469646203922BFA0E80C50A0E867
:1004E0000C50B1F12001BFF4F7AF090728BFA0E815
:1004F0000C5048BF0CC05DF804EB890028BF40F8E1
:10050000042B08BF704748BF20F8022B11F0804F22
:1005100018BF00F8012B704770477047704770B5DF
:10052000044685690068C10601D5302600E0202612
:10053000C00707D070BDD4E9012130469047206A3A
:10054000401C20626D1EF6D570BD70B504468569ED
:100550000078C00707D170BDD4E901212020904761
:10056000206A401C20626D1EF6D570BD09684A05E0
:1005700001D540B27047C905FCD500B27047096883
:100580004A0501D5C0B27047C905FCD580B2704795
:1005900070B50C460546012A05D02878800600D59E
:1005A000EA69002302E0012305E05B1C934202D2CA
:1005B000E05C0028F9D1A869E618C01AA861286A89
:1005C000184428622846FFF7AAFF04E0D5E9012174
:1005D00014F8010B9047B442F8D32846FFF7B5FF53
:1005E00070BD00002DE9F041064600241068752911
:1005F000314616A510D0FFF7B9FF002802DA4042B5
:1006000013A507E031688A0701D512A502E0490762
:1006100004D511A5012401E0FFF7B1FF00210A2252
:1006200006F1240709E0B0FBF2FCB0FBF2F302FB99
:100630001C00303078541846491C0028F3D123465A
:100640002A463046BDE8F04100F069BA00000000DB
:100650002D0000002B00000020000000116802683F
:10066000006A530501D508700AE0D30501D508805A
:1006700006E0130603D5C217C1E9000200E00860D6
:100680000120704701694A1C02610878704700B573
:100690008FB0CDE901310021059105497944CDE9BB
:1006A00003101146684600F031F90FB000BD00009C
:1006B000E5FFFFFF0A6802F8010B0A607047D1E905
:1006C00000239A4202D2531C0B6010707047000046
:1006D0002DE9FF5F15468A460446DFF8AC80F844F2
:1006E0000027D8E900103E46CDE9001010E03AF8A6
:1006F00016106A4602A800F025FE411C07D021789A
:10070000890603D5E269391891420DD80744761C51
:100710002078800602D5E069B84205DDAE42E6DB0E
:100720003AF816000028E2D1A069C01BA06120465B
:10073000FFF7F5FED8E90010CDE90010002017E022
:100740003AF818106A4602A800F0FCFDB0F1FF3F2D
:1007500081460BD000250DF1080B05E0D4E90121FD
:100760001BF8050090476D1C4D45F7D308F10100BB
:10077000B0428046E4DB206A384420622046FFF71E
:10078000E4FEBDE8FF9F0000AE5500002DE9F041FA
:100790008046D21D22F007020025D2E90002F52989
:1007A00015A614D0011E72F1000106DA0023D0EB69
:1007B000030063EB020211A608E0D8F800108B07D3
:1007C00001D50FA602E0490701D50EA60125114665
:1007D000002408F1240704E000F05CF930323A55B7
:1007E000641C50EA0102F7D12B46324621464046AE
:1007F000BDE8F04100F093B9000000002D000000BA
:100800002B0000002000000030B4002100F124047F
:1008100008E002F00705D208303542EA4372DB08EF
:100820006554491C52EA0305F3D10468002310A261
:10083000250707D5A40600D421B1C46901230DA260
:10084000641EC46130BC00F06AB910B5044621468C
:100850001068FFF794FE02462046BDE810400023D2
:10086000D2E7D21D22F00701D1E90023CCE7000036
:100870000000000030000000F0B40D4601880905BA
:1008800002D5214C7C4402E01F4C7C440E340021F4
:1008900000F1240608E002F00F071209E75D42EAC2
:1008A00003721B097754491C52EA0307F3D10278FB
:1008B0000023120704D5702D06D009B1022311348C
:1008C0002246F0BC00F02BB901231034F8E770B5D4
:1008D00004460D4621461068FFF751FE02462946A0
:1008E0002046BDE870400023C6E7D21D22F0070372
:1008F000D3E90023C0E70368126843F020030360D4
:100900000823C3610023B7E7105400002DE9F05F0E
:10091000894604464FF0000ADFF874B1FB44C0F882
:1009200020A02046E1688847002874D0252806D0FA
:10093000D4E901219047206A401C2062F1E700269B
:100940005F462046E16888472028054607DB312DB1
:1009500005D2781910F8200C08B10643F1E7B0076A
:1009600001D526F00406C4F81CA00027C4F818A07E
:100970002A2D09D0284603F0D3FC38B304EB8708AE
:10098000303DC8F8185019E059F8041B204604EB14
:1009900087029161E1688847012F054618D1E06917
:1009A000002820DA26F020061DE0D8F8180000EB19
:1009B000800005EB40003038C8F818002046E16898
:1009C0008847054603F0ACFC0028EED1012F0AD081
:1009D0002E2D08D12046E16888477F1C0546022F4E
:1009E00046F02006C4DBA069002803DA404246F046
:1009F0000106A061F00701D026F010066C2D0BD087
:100A0000682D09D04C2D39D06A2D35D0742D35D0B4
:100A10007A2D33D016E038E0E1682F46204688472B
:100A2000B842054609D16C2F26D04FF48060E168AA
:100A3000064320468847054604E06C2F1AD04FF441
:100A4000807006430DB3A5F14100192802D8203566
:100A500046F400664A462946204626604E46FFF781
:100A60007FFB80B101280BD0F61D26F0070000F1B6
:100A7000080956E74020E4E78020D8E70020D6E7C1
:100A800006F104094DE7284652E7206ABDE8F09FC9
:100A9000A053000030B5B0F10A024FEA900E71F198
:100AA00000034EEA817EB0EB0E0061EB91014FEA4C
:100AB000101E4EEA017E10EB0E0041EB11114FEAC1
:100AC000102E4EEA016E10EB0E0041EB11214FEAA1
:100AD000104E4EEA014E10EB0E0041EB1141401852
:100AE00041F100014FEAD00040EA41704FEAD101E4
:100AF00010EB80054FEA810444EA907444EB010452
:100B00006D1944EB0404521BA3414FF0000348BF8E
:100B10000A3200D530BD401C41F1000130BD2DE945
:100B2000F0470D4699469246044600F124080168B4
:100B3000880604D5E06921F01001216000E0012061
:100B4000A84201DD471B00E00027A1697A1902EBEA
:100B50000900081AA0612078C00602D42046FFF7D9
:100B6000DEFC002608E0D4E901211AF806009047CF
:100B7000206A401C761C20624E45F4DB2078C006BB
:100B80000AD52046FFF7CBFC06E0D4E9012130204E
:100B90009047206A401C2062381EA7F10107F4DC50
:100BA00007E0D4E9012118F805009047206A401CAD
:100BB0002062281EA5F10105F3DC2046FFF7C5FCE5
:100BC0002078000602D50220BDE8F0870120FBE76F
:100BD00070472DE9FF4F0C461E464FF0FF378BB094
:100BE000D2E90001DDF860800A908A46C1F30A5517
:100BF00005B93D46002108464FF00000BAF1000F4C
:100C000000F4400005DA00EB80004FF4400101EAF7
:100C100050004FEA9059B9F1010F00DDB9460A982A
:100C200050EA4A000ED044F61050A5F2FF35454375
:100C30002F14B8F1000F1ED07542291E1EDDC9F118
:100C400000021CE0B8F1010F4FF0000001D030218C
:100C500003E0F24305E02154401CB042FBDB304688
:100C60000022002121540B99C1F80880C1E900201D
:100C70000FB0BDE8F08FBD1B6D1CDEE74A4600DA01
:100C8000694206A800F0F0FB06AB93E8070003AB4F
:100C900083E8070050460A9900F0ADFC8DE8070094
:100CA000A0F500501F3800900398002D0ADD42F295
:100CB0001F014A460844002303A90390684600F038
:100CC00016FF09E0A0F500504A461F38002303A98B
:100CD0000390684600F020FF8DE807000004000C38
:100CE00003D04FF0FF30410800E01046B8F1000F8C
:100CF00003D00022009215461EE0751E05D4FFF7B2
:100D0000C9FE303262556D1EF9D5B3460122084343
:100D100002D000227F1C04E02078302801D100227C
:100D20007F1E002A099784D01DE0112D07DAFFF7F6
:100D3000B1FE303262556D1C50EA0102F5D1084314
:100D400002D00098C8B10EE00021681E05E0235CC7
:100D5000625C63542254401E491C8142F7DBAB465F
:100D6000A81B401E0990002004F80B000B98099A5C
:100D7000C0F80880C0E9002B7AE711264FF0000880
:100D800057E72DE9F04F88460446D21D22F00701AF
:100D900091B0D1E90001CDE90A0103F09DFA0246C4
:100DA0000B98C00F01D02D2007E02068810701D5E6
:100DB0002B2002E0202101EAC000032A099001D083
:100DC000072A05DB03464146204600F00DFB0BE1F8
:100DD0002078800601D5E06900E00620B8F1650FB3
:100DE000814606D0B8F1660F18D0B8F1670F70D100
:100DF00031E00020B9F1110F009001DB112301E077
:100E000009F101030AAA01A90CA8FFF7E2FEDDE936
:100E10000C70002609F10105834647E001204B468E
:100E200000904FF000470AAA01A90CA8FFF7D1FED5
:100E3000DDE90DB00C995D46002610B909F10100FD
:100E40000D18B9EB050003D4C0F1FF3609F1010517
:100E5000A5EB09002BE0B9F1010F01DA4FF0010910
:100E60000020B9F1110F0090484601DD112300E088
:100E700003460AAA01A90CA8FFF7ABFEDDE90C7036
:100E80004D4600268346207800070AD4AB4500DA99
:100E90005D4601A8012D04DD411911F8011C30291E
:100EA00007D04F4502DA17F1040F04DA0120824619
:100EB0000FE06D1EEEE7002F02DCED1B3E4403E069
:100EC000781CA84200DD7D1CB81B00F1010A4FF020
:100ED00000472078000703D4AA4501DB4FF0FF3A12
:100EE0000021B7F1004F0DF143088DF8431024D0D5
:100EF00002202B23002F01DA7F422D230A21021E1C
:100F0000A0F1010000DC5FB197FBF1FC97FBF1F26F
:100F100001FB1C7C17460CF1300C08F801CDEEE704
:100F2000A8F1010003702188090501D5452100E0E1
:100F30006521A0F1010800F8011C09980FA9A1EB97
:100F40000807FF1D00B10120411901EBEA70A169FA
:100F50003844081A401EA0612078C00602D42046FA
:100F6000FFF7DDFA099828B1D4E901219047206AFA
:100F7000401C20622078C00622D52046FFF7CFFA19
:100F80001EE0002E04DBB34502DD01A8805D00E019
:100F90003020D4E901219047206A401C2062761C51
:100FA000AAF101005FEA000A0AD100F019FAC0684C
:100FB0000168405CD4E901219047206A401C20620E
:100FC000281EA5F10105DCDC07E0D4E9012118F8B1
:100FD000010B9047206A401C2062381EA7F10107D0
:100FE000F3DC2046FFF7B1FA032011B041E6000020
:100FF0002DE9F04F04460D46D21D22F0070089B0BE
:10100000D0E900974846394603F066F90246F80FE2
:1010100001D02D2307E02068810701D52B2302E0B2
:10102000202101EAC0038DF820300BB1012000E03F
:101030000020032A824601D0072A04DB29462046E5
:1010400000F0D2F93FE12078800601D40D2500E0C0
:10105000E569C7F30A560D2D49DA00214FEA175BFF
:1010600008464FF00000002F00F4400007DA00EBC4
:1010700080004FF4400100EBD07001EA6000811560
:10108000012901DD4FF0FF3100224FEA850CBCF150
:10109000180F06D31346ACF118004FF08052C2402F
:1010A00003E04FF4801323FA0CF30CF10C0CBCF1A9
:1010B000200F04D3ACF1200C09FA0CF001E007FA80
:1010C0000CF000294FF0004801DD18B90FE00ED1F7
:1010D00040450CD319EB02095F4121B9404502D1CB
:1010E0009F4329EA0209BBEB175F00D0761C2088DA
:1010F000000502D57B48784402E07A4878441938E4
:1011000008AA302302F80A30037C0AF10101002EFC
:101110000AF1020A53546A4602DC4FF0300101E042
:101120004FF031014FF001088DF8001002D0A6F207
:10113000FF3603E059EA470100D06B4E002D02DC78
:101140002178090704D54FF002082E218DF80110EF
:10115000C44600210BE0C7F303433F01C35C491CB5
:101160006D1E02F80830052908F1010801DA002D8A
:10117000F1DC00210CE000EB1973491C1B786D1E9B
:10118000082902F808304FEA091908F1010801DAC4
:10119000002DF0DC21688B0602D516E0A8F10108CD
:1011A000E04505DD02EB080313F8013C302BF5D0D8
:1011B000B8F1000F09DD02EB080313F8013C2E2BF8
:1011C00003D1090701D4A8F10108002D05DD3E2156
:1011D00002F808106D1E08F10108407C002E02F88C
:1011E000080008F1010804DA2D20764202F8080010
:1011F00002E02B2002F808000A214FF47A708642A0
:1012000008F101080BDB96FBF0F3303302F80830ED
:1012100096FBF0F308F1010800FB136601E0642E71
:101220000CDB642096FBF0F3303302F8083096FBB9
:10123000F0F308F1010800FB136601E00A2E06DB5B
:1012400096FBF1F0303002F8080008F1010896FB37
:10125000F1F001FB1060303002F80800A16908F1DC
:10126000010808EB050202EB0A00081AA0612078C9
:10127000C00602D42046FFF752F9216A08AE01EBFE
:101280000A00206204E0D4E9012116F8010B90471E
:10129000BAF1010AF7D22078C00602D52046FFF73E
:1012A0003EF96E4609E016F8010B3E280FD0D4E94E
:1012B00001219047206A401C2062B8F10108F2D257
:1012C0002046FFF742F909B00320BDE8F08F206AFD
:1012D0002844206203E0D4E90121302090476D1EAC
:1012E000EBD3F8E7EA4B000002FCFFFF10B54369BF
:1012F00013B1AFF3008001E0FFF74AF9012010BD00
:10130000127800F124010A7000224A700122EDE7F0
:1013100011684FF0FF32E9E710B5436913B1AFF33D
:10132000008001E0FFF7D4F9012010BD128800F120
:10133000240182840022C2840122EDE711684FF06B
:10134000FF32E9E770B516460C46054600F040F856
:10135000036893F80101012806D0FF2C0FD8185D0F
:1013600068B101202C7070BDD3F8070132462146C8
:1013700003F2071303442846BDE8704018474FF0B6
:10138000FF3070BD754600F0EBF8AE4605006946CB
:10139000534620F00700854618B020B5FEF7A4FF9D
:1013A000BDE820404FF000064FF000074FF0000866
:1013B0004FF0000B21F00701AC46ACE8C009ACE8E7
:1013C000C009ACE8C009ACE8C0098D467047000010
:1013D00010B500F005F8001D10BD00BFA93C0000CD
:1013E00000487047241600202DE9F0411F460446AE
:1013F00003260168072A01F4006004DB08B116A582
:1014000005E016A503E008B115A500E015A521F03B
:1014100010002060A069C01EA0610FB1401EA06135
:101420002046FFF77CF84FB1D4E9012138469047B8
:10143000206A401C2062C01C206206E0206AFAE795
:10144000D4E9012115F8010B9047761EF8D2204609
:10145000FFF77BF8BDE8F0814E414E006E616E00F3
:10146000494E4600696E66002DE9F04781461646F2
:101470008AB0354878440DC88DE80D00324878446C
:10148000801C03AC0DC884E80D0041F69B30084475
:10149000372190FBF1F290FBF1F5A5F1800501FBFE
:1014A00012041B3C02D56442012000E00020DFF85A
:1014B00098A080460027FA44AAF1BE0A0EE0E00791
:1014C0000AD03246684607EB470101230AEB810147
:1014D00000F022FB8DE8070064107F1C002CEED189
:1014E000194F7F44AE3F19E0E80715D007EB041011
:1014F0000DF1180A90E80E008AE80E00C068F0426C
:1015000001D1981908903246012306A903A800F0DA
:1015100003FB03AB83E807006D10641C002DE3D1CF
:101520004FF0010332466946B8F1000F03A802D01C
:1015300000F0DDFA01E000F0EFFAC9E90001C9F8B6
:1015400008200AB0BDE8F087FC48000010B504464A
:10155000AFF300802046BDE81040FEF764BE0000F7
:1015600000487047041600204FF0013C50F8042B4F
:1015700051F8043B9A4221D1A2EB0C03934313EAA6
:10158000CC1317D150F8042B51F8043B9A4215D1D3
:10159000A2EB0C03934313EACC130BD150F8042BAA
:1015A00051F8043B9A4209D1A2EB0C03934313EA8E
:1015B000CC13DBD04FF00000704700BFD01A01BA47
:1015C000B1FA81F101F0180122FA01F0CB40C1F12A
:1015D0002001DBB2C0B2C01A2CFA01F3D11A914338
:1015E00011EAC311E6D1704701491820ABBEFEE7EE
:1015F0002600020070475FEA400C08BF91F0000F20
:101600004FEA8C234FEAC12243EA51514FEA1C5062
:1016100018BF00F5F0404FEA300018BF41F000411C
:101620005FEA6C5C00F02980BCF1FF3F08BF40F02E
:1016300080407047130C06BF12044FF0100C4FF09F
:10164000000C130E04BF12020CF1080C130F04BFA0
:1016500012010CF1040C930F04BF92000CF1020C68
:10166000D30F04BF52000CF1010C11464FF00002E1
:10167000A0F11F00A0EB0C00704711F0004F08BF55
:10168000704731F000413FF4D5AF0B0C06BF0904A1
:101690004FF0100C4FF0000C0B0E04BF09020CF1C0
:1016A000080C0B0F04BF09010CF1040C8B0F04BFD5
:1016B00089000CF1020CCB0F04BF49000CF1010CA6
:1016C000CCF12003A0EB0C0022FA03F302FA0CF297
:1016D00041EA030100F10100704720F07F4C80EAED
:1016E000030023F07F47ACEB070303F57C5300F0C6
:1016F000004003F1FF032DE980494FEA154B09B47F
:101700004FEA144325EA0B4E24EA03480FF204265D
:1017100006EB132749083E785FEA320203FB0667AF
:10172000C7F5000707FB06F64FEA54374FEAD646DF
:1017300006F1020607FB066CCCF1005C4FEA1C4781
:101740002CEA074C07FB06F40CFB06F504EB1546E8
:101750004FEA961634BF00204FF000404FEAD137D1
:1017600006FB07FC4FEA1C4C0CFB0BF7D21B03FBE0
:101770000CF761EB07010CFB0EF7B0EB074072EBC7
:1017800017420CFB08F734BFA2EB0742B2EB07424B
:1017900061EB17414FEA0C444FEA910706FB07FC47
:1017A0004FEA1C4C0CFB0BF7B0EBC74072EB573207
:1017B00003FB0CF734BFA2EBC742B2EBC74261EBAD
:1017C00057310CFB0EF7B0EBC70072EB57720CFBF6
:1017D00008F734BFA2EBC702B2EBC70261EB577147
:1017E000039F4FEA816141EA921104EBCC044FEA76
:1017F000D1374FEA826206FB07FC42EA90124FEAB9
:1018000080604FEA1C4C0CFB0BF7D21B03FB0CF760
:1018100061EB07010CFB0EF7B0EB074072EB1742D0
:101820000CFB08F734BFA2EB0742B2EB074261EBB7
:1018300017414FEA8C554FEA910704EB9C2406FBB5
:1018400007FC4FEA1C4C0CFB0BF7B0EBC74072EBEC
:10185000573203FB0CF734BFA2EBC742B2EBC742CF
:1018600061EB57310CFB0EF7B0EBC70072EB577210
:101870000CFB08F734BFA2EBC702B2EBC70261EB67
:10188000577115EB4C254FEA816141EA92114FEAFD
:1018900082624FEAD13742EA901206FB07FC44F11C
:1018A00000044FEA80604FEA1C4C0CFB0BF7D21B84
:1018B00003FB0CF761EB07010CFB0EF7B0EB0740E5
:1018C00072EB17420CFB08F734BFA2EB0742B2EBF6
:1018D000074261EB174115EB1C154FEA813141EAD4
:1018E00092414FEA823242EA90424FEA80304FEA18
:1018F0000C7644F1000448EA03434EEA0B484FF0EB
:10190000000EB2EB080C71EB030724BF62463946A8
:101910004EEB0E0E4FF0000B0018524149414BEBBD
:101920000B0BB2EB080C71EB03077BF1000B24BF30
:10193000624639464EEB0E0E4FF0000B0018524136
:1019400049414BEB0B0BB2EB080C71EB03077BF13E
:10195000000B24BF624639464EEB0E0E51EA0207D9
:1019600018BF46F0010616EB0E7655F1000254F151
:10197000000103D5BDE88901BDE80088BDE8890103
:10198000BDE80048B619524141EB0101A3F1010342
:10199000704780807F7E7D7C7B7A797877767675DC
:1019A0007473727171706F6E6E6D6C6C6B6A6A6954
:1019B0006868676666656464636362616160605FEE
:1019C0005F5E5E5D5D5C5C5B5B5A5A595958585767
:1019D00057565655555554545353525252515150CF
:1019E00050504F4F4F4E4E4D4D4D4C4C4C4B4B4B22
:1019F0004A4A4A4949494848484747474746464668
:101A000045454544444444434343434242424241A2
:101A10004141002B9C4630D477002BD01CB54FEAB7
:101A2000370703B44FF010004FF01001BAF1000F68
:101A300006D0BCF1000FDCBF40F0080040F0080108
:101A40004FF000000FBCBDE810400BF1010BBBF1E3
:101A5000010F08BF5FEA170722BF12F1010211F15F
:101A600001014FF0004143F1000300F0004043EA60
:101A700000007047F9D35708D0E746EA064613F14D
:101A8000400F4FEA16461FDD13F1200FDFBF16434C
:101A90000A46002120335B42BED0C3F1200746EA4C
:101AA000064602FA07F74FEA164646EA0706C3F16A
:101AB000200722FA03F201FA07F721FA03F14FF0A7
:101AC000000342EA0702A7E746EA020646EA06469C
:101AD0004FEA164646EA0106BCBF46EA0646360C01
:101AE0004FF000034FF000024FF0000194E72DE9A2
:101AF000804C9A46934670B491E8380007C831EAA2
:101B0000400C48BF34EA430C03D5FFF7E6FDFFF76E
:101B100080FFF0BCBDE8008C2DE9804C9A469346CE
:101B200070B491E8380007C810F0804F08BF13F078
:101B3000804F03D100F005F8FFF76BFFF0BCBDE864
:101B4000008C20F07F4780EA030023F07F4C07EBF6
:101B50000C03A3F57C5300F00040A3F1FE0392F0C8
:101B6000000F00F0B38095F0000F00F077802DE9B2
:101B700001494FEA11404FEA144621EA004800FBB0
:101B800006FC24EA064708FB06F607FB08F800FBFC
:101B900007F718EB06484CEB164C4FEA124B18EBC4
:101BA00007484FEA15464CEB174022EA0B4E0BFB59
:101BB00006FC25EA06470EFB06F607FB0EFE0BFBAE
:101BC00007F71EEB064E4CEB164C4FF000061EEBD3
:101BD000074E4CEB174B18EB0B0840F1000018EBCD
:101BE0000E0B58EB000840F100008F1A4FF0000177
:101BF0003CBFC943661B14BFB5EB040C00213CBFBE
:101C0000C943F61B4FEA17444EEA8E0E27EA0445F5
:101C10004FEA1C4704FB07622CEA074C05FB07F759
:101C20000CFB05F604FB0CFC16EB074642EB1742D7
:101C300016EB0C4642EB1C421BEB060658EB02026D
:101C4000414146EA9E0601D5BDE80189B6195241D7
:101C500041EB0101A3F10103BDE801894FEA1445FD
:101C60004FEA114724EA054621EA074C05FB07F431
:101C700006FB07F70CFB06F105FB0CFC11EB07411B
:101C800044EB17444FEA124711EB0C4144EB1C4460
:101C900022EA074C05FB07F206FB07F70CFB06F6EA
:101CA00005FB0CFC16EB074642EB174216EB0C4605
:101CB00042EB1C456A1854F1000148BF7047B61941
:101CC000524141EB0101A3F10103704795F0000F70
:101CD00037D04FEA11424FEA144721EA024624EA7C
:101CE000074C02FB07F106FB07F70CFB06F402FBAF
:101CF0000CFC14EB074441EB17414FEA154714EB7A
:101D00000C4441EB1C4125EA074C02FB07F506FB9E
:101D100007F70CFB06F602FB0CFC16EB074645EB3F
:101D2000174516EB0C4645EB1C42121951F1000108
:101D300048BF7047B619524141EB0101A3F10103BD
:101D400070474FEA14454FEA114724EA054621EA55
:101D5000074C05FB07F106FB07F70CFB06F24FF0FB
:101D6000000605FB0CFC12EB074241EB174112EB9E
:101D70000C4251EB1C4148BF7047921841EB0101E6
:101D8000A3F10103704770B5044620688168C94318
:101D9000C90716D1816821F00101816000F0D4FAF1
:101DA000054609E000F0D0FA401B022804D920685B
:101DB0008068C043C00706D020688068C043C00761
:101DC000F0D0002070BDA06A40F01000A062E06A70
:101DD00040F00100E062012070BDFEE77047012085
:101DE00000F0A6B910B54FF4806000F0A1F94FF4EF
:101DF000006000F09DF9BDE810404FF4805000F005
:101E000097B9022000F094B9042000F091B910B500
:101E1000202000F08DF9402000F08AF9802000F0A9
:101E200087F9BDE810404FF4807000F081B972B6B8
:101E3000FEE70000F8B500230025009590F8242067
:101E4000012A12D0012280F824204A681F26072A7E
:101E50000DD20468676B521E02EB82029640B743B4
:101E60000E689640374367631AE00220F8BD0D2ADA
:101E70000BD20468276BD21F02EB82029640B74355
:101E80000E689640374327630AE00468E76A0D3A14
:101E900002EB82029640B7430E6896403743E762F2
:101EA0000A6807260A2A0BD30468E7680A3A02EB95
:101EB00042029640B7438E6896403743E76009E098
:101EC0000468276902EB42029640B7438E68964049
:101ED000374327610A68102A01D0112A23D1144CF4
:101EE0000268A2421AD1946824021CD4946844F473
:101EF000000494600968102915D10E490E4A09683A
:101F0000B1FBF2F101EB81014900009102E000997F
:101F1000491E009100990029F9D104E0816A41F03D
:101F200020018162012380F824501846F8BD00008A
:101F3000002401401400002040420F002DE9F04130
:101F4000044600270025002C03D0A06A002618B103
:101F500008E00120BDE8F081E66284F824602046B4
:101F600000F078F82046FFF70EFFA16AC90600D4FA
:101F700028B1A06A40F01000A0620120EAE7A16A3F
:101F800021F4885141F00201A1626268E169237B7A
:101F90000A4347EA43010A43A1684FF48077B942F4
:101FA00008D0012906D0002194F814C0BCF1010F1B
:101FB00002D00AE03946F7E7F3B1A36A43F0200301
:101FC000A362E36A43F00103E3622368D3F804C029
:101FD0002CF4694C4CEA010CC3F804C021688B68EE
:101FE000DFF868C003EA0C0313438B60A168B942B1
:101FF00009D0012907D009E0A3695B1E41EA4331FA
:1020000041F40061E1E7218A491E0D052168CB6A90
:1020100023F470032B43CB62216889680C4B194071
:10202000914207D1E662A16A21F0020141F001016B
:10203000A1628FE7A06A20F0020040F01000A062C9
:10204000E06A40F00100E062012083E7FDF7E1FF74
:10205000FE0E1FFF10B586B000210291039104917E
:1020600005911C4C02681C4903231C48A24216D14E
:102070008A6942F400728A618A6902F400720192EC
:102080008A6942F004028A61896901F004010191C0
:102090000293039302A900F057F806B010BD104C4C
:1020A000A242FAD18A6942F480628A618A6902F4A2
:1020B000806201928A6942F004028A61896901F0B2
:1020C000040101910C210291039302A900F03CF854
:1020D000E3E7000000240140001002400008014036
:1020E0000028014070B5044600F02EF90546601C3A
:1020F00002D004480078044400F026F9401BA042B6
:10210000FAD370BD0800002010B5B0F5807F09D06B
:1021100002F08AF9002804DB0449C0B20A5C521CB0
:102120000A5410BDBDE8104002F0C8B9F8150020EF
:1021300010B504490A68024202D00860FFF7E4FFC4
:1021400010BD0000140401402DE9F84F00240023C5
:10215000DFF8C4914FF00F08A9F1040B09F1040A4C
:10216000ABF1040ED1E00127A7403A40BA4275D145
:10217000DFF8A8C14D68A5EB0C0665452BD00DDC3A
:10218000032D34D005DC35B3012D19D0022D2FD10C
:102190001BE0112D16D0122D2AD119E0B6F5881F9B
:1021A00019D006DCB6F5803F15D0B6F5801F1FD1DB
:1021B00011E0B6F5001F0ED0B6F5041F18D10AE0E5
:1021C000CB6815E0CB681B1D12E0CB6808330FE02D
:1021D000CB680C330CE08B6823B1012B04D00823AF
:1021E000476105E0042303E00823076100E00023C2
:1021F000FF2A01D8054601E000F1040502D84FEAA4
:10220000840603E0A4F108064FEA86062F6808FA60
:1022100006FC27EA0C0703FA06F647EA06072F60D2
:102220004D68ED0070D53E4DAE6946F00106AE61D9
:10223000AD6905F0010500953A4D24F003067719C4
:10224000BE68A5072D0F08FA05FC26EA0C06DFF884
:10225000D8C0604503D14FF0000C17E054E0DFF820
:10226000CCC0604502D14FF0010C0FE0DFF8C0C0D8
:10227000604502D14FF0020C08E0DFF8B8C06045BD
:1022800002D14FF0030C01E04FF0040C0CFA05FCF6
:102290004CEA060CC7F808C04D68ED0205D5D9F820
:1022A00000501543C9F8005004E0D9F80050954398
:1022B000C9F800504D68AD0205D5DAF80050154355
:1022C000CAF8005004E0DAF800509543CAF800500C
:1022D0004D68AD0305D5DBF800501543CBF8005031
:1022E00004E0DBF800509543CBF800504D68ED0357
:1022F00005D5DEF800501543CEF8005004E0DEF8B6
:1023000000509543CEF80050641C0A6832FA04F578
:102310007FF429AFBDE8F88F0804014000001110D8
:10232000001002400000014000080140000C014084
:102330000010014000140140002A01D001617047E3
:10234000090401617047000001488068704700007F
:102350000800002070B50446002C04D094F83D001D
:10236000002510B106E0012070BD84F83C502046E5
:1023700000F060F9242084F83D002068016821F015
:10238000010101602068016841F40041016020689A
:10239000016821F40041016000F0A2FB4F4B61682D
:1023A000994203D84E49884203D304E04D498842FC
:1023B00001D2012070BD4C49B0FBF1F12268566892
:1023C00026F03F060E43566062689A4201D8491CC7
:1023D00007E04FF4967251434FF47A72B1FBF2F179
:1023E000491C2268166A26F03F0631431162616873
:1023F000994210D84900401EB0FBF1F2521CC2F3C2
:102400000B02042A01D2042022E0B0FBF1F0401CB0
:10241000C0F30B001CE0A268F2B301EBC10303EBB5
:102420000116431EB3FBF6F35B1C43F480431B050C
:1024300049D092B301EBC10202EB0111401EB0FB87
:10244000F1F0401CC0F30B0040F4804040F4004029
:102450002168CA694CF6FF739A431043C861D4E9F6
:10246000071001432068026822F0C0021143016096
:10247000D4E9030101432068826848F2FF339A439C
:1024800011438160D4E9051001432068C26822F03D
:10249000FF021143C16001E00EE016E02068016810
:1024A00041F0010101602564202084F83D0025638E
:1024B00084F83E50002070BD01EB4106431EB3FB83
:1024C000F6F35B1CB3E70120C2E701EB4101401EBC
:1024D000B0FBF1F0401CC0F30B00B7E7A086010091
:1024E00080841E0000093D0040420F002DE9F84F96
:1024F00004468A4615469946DDF82880FFF724FFF2
:10250000064694F83D00202802D00220BDE8F88F4E
:102510001923012245492046009601F00DF808B123
:102520000220F3E794F83C00012807D0012084F84A
:102530003C0020680168C90702D005E00220E5E7F9
:10254000016841F0010101602068016821F4006127
:102550000160212084F83D00102084F83E0000270F
:1025600027646562A4F82A90608D20853048E06277
:10257000334642465146204600F05AFF08B101203A
:10258000C4E720684169806900903EE032464146D8
:10259000204601F08BF848B1206C042804D1206853
:1025A000016841F4007101600120AFE7606A2168B1
:1025B00000780861656A6D1C6562608D401E6085EB
:1025C000208D401E80B2208522685169C943490789
:1025D0000BD450B128781061606A401C6062608D35
:1025E000401E6085208D401E208532464146204693
:1025F00000F076FF48B1206C042804D120680168FF
:1026000041F400710160012080E7208D0028BDD1D8
:102610001F3454F81F0C016841F400710160202040
:10262000A077E7776777002070E7000002001000CE
:102630000000FFFF10B586B00021029103910491C4
:10264000059100681349884222D1134CA06940F0DB
:102650000800A061A06900F0080001904FF44070EC
:102660000290122003900320059002A90B48FFF767
:102670006BFD0B49486840F0E06040F002004860A4
:10268000E06940F40010E061E06900F4001001909E
:1026900006B010BD0054004000100240000C014084
:1026A000000001400248816802781144816070474F
:1026B0000800002010B50748016841F010010160D2
:1026C000032000F0A7F80F2000F006F800F050F803
:1026D000002010BD0020024030B587B005461F48DD
:1026E000C16941F00401C161C06900F004000090BB
:1026F00001A902A800F0D0F90598B0B100F0F0F9F6
:1027000040001749B0FBF1F1491E1748154A026015
:1027100040F2E732C2604160002202618260826161
:1027200000F069FD04461CB115E000F0D9F9E8E7B6
:102730000D4800F087FD04466CB91E2000F03CF8FF
:10274000102D07D2002229461E2000F043F807482A
:10275000056000E0012407B0204630BD00100240B3
:1027600040420F0000080040000400200C00002040
:1027700008B50F48816941F001018161816901F06B
:1027800001010091C16941F08051C161C06900F04F
:102790008050009000220F21901E00F01BF8054988
:1027A000486820F0E06040F00070486008BD00001C
:1027B0000010024000000140002809DB00F01F0269
:1027C000012191404009800000F1E020C0F8001193
:1027D00070470000F0B40D460D4B1B68C3F3022395
:1027E000C3F10704042C00D90424191D072901D2C0
:1027F000002300E0DB1E012606FA04F1491E2940F1
:1028000099409E40761E16403143F0BC01F078BDE1
:102810000CED00E000F00701054A10684FF6FF03D9
:10282000184040EA01200349084310607047000047
:102830000CED00E00000FA052DE9F8430446DFF84E
:10284000F8802078C0075FD00027D8F81C00C000AF
:102850000BD4D8F81C0040F08050C8F81C00D8F801
:102860001C0000F0805000900127344D2868C005FE
:1028700012D4286840F480702860FFF765FD064692
:1028800007E0FFF761FD801B642802D90320BDE843
:10289000F8832868C005F4D5D8F8200000F440700B
:1028A00010B3A18801F4407181421DD0D8F82000F6
:1028B00020F44070224901220A6000220A60C8F810
:1028C0002000C00710D0FFF73FFD054641F28836D3
:1028D00006E0FFF739FD401BB04201D90320D6E7DF
:1028E000D8F820008007F4D5D8F82000616820F4DB
:1028F00040700843C8F82000012F05D1D8F81C000B
:1029000020F08050C8F81C002078800707D5D8F840
:102910000400A16820F440400843C8F8040020786F
:10292000C00607D5D8F80400E16820F48000084309
:10293000C8F804000020AAE7001002400070004020
:10294000400442422DE9F04704460D46002C17D0C2
:10295000DFF83081D8F8000000F00700A84211D25B
:10296000D8F8000020F007002843C8F80000D8F885
:10297000000000F00700A84204D00120BDE8F08765
:102980000120FBE72068404E810712D5400703D5A0
:10299000706840F4E06070602078000703D57068CC
:1029A00040F4605070607068A16820F0F000084347
:1029B00070602078C0072CD06068012806D00228FB
:1029C00009D0316889070BD40120D7E73168890322
:1029D00006D40120D2E73168890101D40120CDE776
:1029E000716821F0030101437160FFF7ADFC0746F8
:1029F00041F2883906E0FFF7A7FCC01B484501D922
:102A00000320BBE77068616800F00C00B0EB810F39
:102A1000F1D1D8F8000000F00700A8420ED9D8F88C
:102A2000000020F007002843C8F80000D8F8000094
:102A300000F00700A84201D001209FE7207840075E
:102A400005D57068E16820F4E06008437060207884
:102A5000000706D57068216920F4605040EAC10083
:102A6000706000F04DF87168084AC1F30311515CC1
:102A7000C8400749086007480068FFF72DFE00209E
:102A80007CE700000020024000100240BA55000818
:102A9000140000200C0000200F2202600B4A536833
:102AA00003F003034360536803F0F003836053684B
:102AB00003F4E063C360526802F46052D20802611A
:102AC0000348006800F007000860704700100240EB
:102AD00000200240014800687047000014000020F8
:102AE00000B5FFF7F7FF04494968044AC1F3022122
:102AF000515CC84000BD000000100240CA550008EB
:102B00000E4B59680E4801F00C02042A11D0082A15
:102B10000FD10C48C1F38342805CC9030AD55968C0
:102B2000084AC1F34041921E515C054A5043B0FB34
:102B3000F1F070470449484370470000001002401C
:102B400000127A00AA55000800093D002DE9F84F4F
:102B50000446002C0ED02078D94DC0075ED068689E
:102B6000C0F3810001280BD06868C0F381000228FF
:102B700003D00CE00120BDE8F88F6868C00306D5DB
:102B8000286880034AD56068A8BB0120F3E7606825
:102B9000B0F5803F11D0A8B1B0F5A02F1BD02868A8
:102BA00020F480302860286820F480202860606845
:102BB00030B3FFF7C9FB06461EE0286840F48030BA
:102BC0002860F4E7286820F480302860286820F422
:102BD00080202860EBE7286840F48020286028687F
:102BE00040F480302860E2E7FFF7AEFB801B6428EA
:102BF00002D90320BFE711E028688003F4D50DE077
:102C0000FFF7A2FB064606E0FFF79EFB801B642849
:102C100001D90320AFE728688003F5D42078DFF8D6
:102C2000A48280074FF0010A4FF0000945D568687B
:102C300010F00C0F07D06868C0F38100022812D191
:102C40006868C0030FD42868800704D5206901286C
:102C500001D001208FE72868616920F0F80040EA80
:102C6000C100286029E02069B8B1C8F800A0FFF7CA
:102C70006BFB064606E0FFF767FB801B022801D9C5
:102C8000032078E728688007F5D52868616920F077
:102C9000F80040EAC10028600FE0C8F80090FFF794
:102CA00053FB064606E0FFF74FFB801B022801D9C5
:102CB000032060E728688007F5D42078000726D530
:102CC0008148A16999B1C0F800A0FFF73DFB064615
:102CD00006E0FFF739FB801B022801D903204AE7F1
:102CE000686A8007F5D5012001F096F90FE0C0F879
:102CF0000090FFF729FB064606E0FFF725FB801B47
:102D0000022801D9032036E7686A8007F5D42078C5
:102D1000400773D50026E869C00008D4E86940F090
:102D20008050E861E86900F0805000900126DFF8EB
:102D30009CB1DBF80000C00514D4DBF8000040F4BF
:102D40008070CBF80000FFF7FFFA074606E0FFF7B8
:102D5000FBFAC01B642801D903200CE7DBF8000054
:102D6000C005F4D5E068012812D0B0B105281DD007
:102D7000286A20F001002862286A20F004002862F6
:102D8000E06841F2883B28B3FFF7DEFA07461DE012
:102D9000286A40F001002862F2E7286A20F001006A
:102DA0002862286A20F004002862E9E7286A40F0D7
:102DB00004002862286A40F001002862E0E7FFF77B
:102DC000C3FAC01B584501D90320D4E6286A8007FE
:102DD000F5D50DE0FFF7B8FA074606E0FFF7B4FABD
:102DE000C01B584501D90320C5E6286A8007F5D4E1
:102DF000012E03D1E86920F08050E861E069A0B3BA
:102E00006968C1F38101022946D0022805D0C8F8BB
:102E10006090FFF799FA04463AE0C8F86090FFF72F
:102E200093FA064606E0FFF78FFA801B022801D9C5
:102E30000320A0E628688001F5D4206AB0F5803F21
:102E400005D16868A16820F4003008436860D4E9BF
:102E500008010843696821F4741108436860C8F8E0
:102E600060A0FFF771FA044607E026E0FFF76CFA6E
:102E7000001B022801D903207DE628688001F5D5D2
:102E80001BE0FFF761FA001B022801D9032072E65C
:102E900028688001F5D410E001280CD06868226A07
:102EA00000F48031914204D1616A00F470108842CC
:102EB00003D001205FE601205DE600205BE6000014
:102EC0000010024000004242800442420070004074
:102ED00070B50446002C09D0606A002540B1256118
:102EE0006561A56294F8510040B10CE0012070BD0D
:102EF0006068B0F5827FF4D0E561F2E784F8505065
:102F0000204600F03FF8022084F851002068016854
:102F100021F040010160A088218900F4827001F451
:102F200004410843A18901F400610843217C01F0B8
:102F300002010843217D01F001010843218B01F4C6
:102F400000710843217F01F03801084394F82010F4
:102F500001F080010843218D01F4005108432168EC
:102F60000860A069042101EA1040216848602068D7
:102F7000C16921F40061C1616565012084F85100D7
:102F8000002070BD30B585B00024019402940394F4
:102F9000049400681549884225D11548C16941F457
:102FA0008041C161C16901F480410091816941F0B2
:102FB00008018161806900F0080000904FF4204012
:102FC000019002200290032004900A4D01A9284696
:102FD000FFF7BAF84FF4804101910294039401A9DC
:102FE0002846FFF7B1F805B030BD000000380040BA
:102FF00000100240000C01402DE9FF4F81B0044653
:103000000E9E93461F460125FFF79EF9804694F8D1
:103010005100616801280AD0B1F5827F03D1A1680F
:1030200009B9042803D0022005B0BDE8F08F02984A
:10303000A0B3BBF1000F32D0380030D094F850006C
:1030400001282ED04FF0010A84F850A094F85100C6
:10305000042802D0052084F851004FF00009C4F87C
:103060005490C4F838B0E787A78702982063E786B2
:10307000A786C4F84090C4F84490206801684906C7
:1030800003D4016841F040010160E068B0F5006FD1
:1030900009D06068F0B3012F4DD082E0FFE7012036
:1030A000C2E70220C0E7606808B1012F3CD1206B65
:1030B00021680088C860206B801C2063E08E401E61
:1030C000E08631E02068816889070DD5E18E59B12D
:1030D000012D09D1216B0988C160206B801C206300
:1030E000E08E401EE086002520688168C9070BD06D
:1030F000E18F49B1C068A16B0880A06B801CA06300
:10310000E08F401EE0870125FFF71EF9A0EB0800C5
:10311000B04200E00FE007D3701C05D084F851A046
:1031200084F8509003207FE7E08E0028CAD1E08F1A
:103130000028C7D13BE0206B216800780873206B22
:10314000401C2063E08E401EE0862AE020688168F3
:1031500089070DD5E18E59B1012D09D1216B09786F
:103160000173206B401C2063E08E401EE08600252A
:1031700020688168C9070BD0E18F49B1C068A16B95
:103180000870A06B401CA063E08F401EE087012503
:10319000FFF7DAF8A0EB0800B04201D3701C12D19F
:1031A0008EB1E08E0028D1D1E08F0028CED14246EA
:1031B0003146204600F05CFF58B12020606584F85D
:1031C0005090012030E784F851A084F850900320FB
:1031D0002AE7A06818B92068C1688068009084F860
:1031E00051A084F85090606D08B101201CE70020C8
:1031F0001AE77047704710B50446002C03D094F8C6
:103200003D0010B107E0012010BD002084F83C0013
:10321000204600F015F8022084F83D00211D2068AA
:1032200001F004F801203D3460726070A070E0701D
:1032300020716071A071E07120722070002010BDBB
:103240007047000090F83D10012901D0012070471F
:10325000022180F83D100168CA6842F00102CA608C
:1032600000680E49884208D0B0F1804F05D00C4963
:10327000884202D00B49884209D1816801F00701D8
:10328000062908D0016841F00101016003E00168EE
:1032900041F001010160002070470000002C014056
:1032A000000400400008004070472DE9F04104464A
:1032B0002068C56806694FF00007B10714D5A90753
:1032C00012D5F91E016101202077206880698007EE
:1032D00003D02046FFF7E8FF05E0204600F081F824
:1032E000204600F07FF82777700717D5680715D5B7
:1032F00021686FF00400086102202077206880694F
:1033000010F4407F03D02046FFF7CEFF05E02046B3
:1033100000F067F8204600F065F82777300716D5EB
:10332000280714D521686FF0080008610420207771
:103330002068C069800703D02046FFF7B5FF05E08D
:10334000204600F04EF8204600F04CF82777F006B3
:1033500017D5E80615D521686FF010000861082020
:1033600020772068C06910F4407F03D02046FFF723
:103370009BFF05E0204600F034F8204600F032F8CC
:103380002777F00708D0E80706D021686FF0010022
:103390000861204600F028F8300608D5280606D532
:1033A00021686FF0800008612046FFF722FF700659
:1033B00008D5680606D521686FF0400008612046F0
:1033C00000F01CF8B0060AD5A80608D521686FF0F1
:1033D000200008612046BDE8F041FFF70BBFBDE8C3
:1033E000F08170477047000000680349884201D1AE
:1033F000FFF758B970470000000800407047FEE72B
:1034000001684A69D24352050FD46FF480624A6161
:10341000002140F8301F202242738173026942F07C
:103420000402026101730120704700207047000010
:10343000F8B504460D4617461E46E06A082808D02F
:10344000012806D010F5803F03D0206B122806D04B
:103450000AE02068016841F48071016004E020689E
:10346000016841F4807101603B4600224FF0011178
:103470002046009600F060F840B120680068C00562
:1034800002D54FF4007020640320F8BD2069B0F528
:10349000804F0FD005F44070F02141EAD010216830
:1034A000086133463A460D49204600F09BF830B19A
:1034B0000120F8BD216805F0FE00086102E02168E6
:1034C000E8B20861054933463A46891F204600F0B4
:1034D00089F808B10120F8BD0020F8BD08000100FE
:1034E00070B504460D4616461FE02046FFF788FFDC
:1034F00008B1012070BD681C17D0FEF725FF801BA6
:10350000A84200D88DB920684069C04340070CD557
:10351000002044F8300F20216173A073216941F02D
:10352000200121612073012070BD20684069C043E3
:103530004007DAD4002070BD2DE9F0470446DDF8DD
:1035400020900D4690461E46C5F307472FE0701C9D
:103550002DD0FEF7F9FEA0EB0900B04200D836BB33
:10356000012F17D02068806925EA00000004000CB4
:103570001BD0002040451AD1002044F8300F2021F4
:103580006173A073216941F0200121612073012042
:10359000BDE8F0872068406925EA00000004000CBF
:1035A00001D00020E6E70120E4E70120E2E7012F57
:1035B0000BD02068806925EA00000004000C0FD0C1
:1035C00000204045C3D00020E2E72068406925EA9A
:1035D00000000004000C01D00020F2E70120F0E719
:1035E0000120EEE72DE9F04704460D4616469846C1
:1035F0004FF000094FF0200AC5F3074743E0206869
:103600004069C043400517D42068016841F4007147
:10361000016021686FF480604861C4F8309084F8DC
:103620003DA084F83E90206C40F00400206484F8B3
:103630003C900120BDE8F087701C24D0FEF784FE8A
:10364000A0EB0800B04200D8EEB9012F14D02068DA
:10365000806925EA00000004000C14D0C4F8309002
:1036600084F83DA084F83E90206C40F02000206457
:1036700084F83C900120DDE72068406925EA0000DD
:103680000004000CEAD1012F08D02068806925EAE7
:1036900000000004000CB2D10020CBE72068406994
:1036A00025EA00000004000CF6D0A8E770B5044637
:1036B0000D4616461FE02046FFF7A2FE08B1012086
:1036C00070BD681C17D0FEF73FFE801BA84200D8D3
:1036D0008DB920684069C04300060CD5002044F82D
:1036E000300F20216173A073216941F02001216115
:1036F0002073012070BD20684069C0430006DAD401
:10370000002070BD0020054A0021A2F109031154D8
:103710001954401CC0B20928F9D37047F81500208D
:103720000D48417901F00102A0F109010A70C27946
:1037300002F001024A70027902F001028A70827975
:1037400002F00102CA7042780A7102784A718278E6
:103750008A71C078C8717047F81500203EB5002402
:103760000094019402940F480D4901608460047331
:1037700004754FF46021C161446001250561FEF7C5
:10378000DDFB08B1FEF753FB0095019502946946F5
:103790000448FEF74FFB002801D0FEF748FB3EBD72
:1037A00000240140F40200203EB50024009401945E
:1037B000029410480E4901608460047304754FF44C
:1037C0006021C161446001250561FEF7B7FB08B1C6
:1037D000FEF72DFB022000900195029469460548F2
:1037E000FEF728FB002801D0FEF721FB3EBD0000BC
:1037F000002801402403002010B58EB01C220B4984
:1038000007A8FCF70EFE002107A800F092FE084C66
:1038100020601C2205491C316846FCF702FE00218D
:10382000684600F086FE60600EB010BD705500085E
:10383000000000202DE9F04186B00024029403949A
:10384000049405943948816941F0200181618169BE
:1038500001F020010191816941F0040181618169D8
:1038600001F004010191816941F0080181618069E1
:1038700000F0080001902E4F4FF4C0550022294659
:103880003846FEF759FD4FF4C6500290294E039674
:103890000494DFF8A48002A94046FEF755FC40F2EC
:1038A000274002900396049402A93846FEF74CFC88
:1038B00002950120039004940220059002A9384645
:1038C000FEF742FCB81502901C480390049402A92C
:1038D0004046FEF739FC002205210620FEF77AFF5C
:1038E0000620FEF769FF002205210720FEF772FF80
:1038F0000720FEF761FF002205210820FEF76AFF7E
:103900000820FEF759FF002205211720FEF762FF6D
:103910001720FEF751FF002205212820FEF75AFF4D
:103920002820FEF749FF06B0BDE8F08100100240F4
:10393000000C01400000311000080140000021107F
:1039400010B50D480B4901600C49416000218160B0
:10395000C1604FF48042026141618161C1610162D5
:10396000FEF7F8FC002803D0BDE81040FEF75FBA70
:1039700010BD00000054004054030020A086010048
:1039800010B50F480D4901604FF48271416000216C
:103990008160C160016141614FF400728261C16167
:1039A0000162416281620A21C162FFF791FA002837
:1039B00003D0BDE81040FEF73ABA10BD0038004011
:1039C000A8030020FEE7FEE710B5002000F0F6F89F
:1039D000E22000F083F8BDE81040012000F0EEB8CE
:1039E00010B5002000F0EAF8E12000F077F8BDE81B
:1039F0001040012000F0E2B810B5002000F0D6F829
:103A0000BDE81040012000F0D9B8000010B5FFF764
:103A1000F3FF0821002000F0D9F83F21012000F039
:103A2000D5F80121022000F0D1F80321084600F06A
:103A3000CDF80321042000F0C9F80221052000F090
:103A4000C5F80E21062000F0C1F81221112000F067
:103A5000BDF8052207490A2000F0CAF8FFF7C0FFA9
:103A6000FFF7B2FF7021072000F0B0F8BDE810406A
:103A700000F020B88500002010B50446002000F0BA
:103A80009DF8204600F02AF8FF2000F027F80446B1
:103A9000012000F093F8204610BD10B5002000F082
:103AA0008DF8FF2000F01AF80446012000F086F897
:103AB000204610BD10B5002000F078F80020FFF778
:103AC000DBFFFF2809D040F00301002000F07EF862
:103AD000BDE81040012000F069B810BD01B582B00A
:103AE00000200190401E0090012301AA02A9034872
:103AF000FFF782FA9DF804000EBD0000A803002025
:103B000010B505221C49102000F072F805221A4950
:103B10000A2000F06DF81221184800F082F800F039
:103B20002FF842F21074FFF7B8FF641E4CB1C0F3D7
:103B30000111032909D0C1060BD50224FFF766FF46
:103B40000AE00424FFF762FF06E00324FFF75EFFAC
:103B500002E08006E7D501243021072000F036F886
:103B6000FFF73EFF04490522491D0A2000F040F8F6
:103B7000FFF7A0FF204610BD800000203811002074
:103B800010B5002000F012F80020FFF775FFFF28A5
:103B90000BD040F0020020F00101002000F016F8E8
:103BA000BDE81040012000F001B810BD02464FF4FE
:103BB00000610148FEF7C0BB000C014002464FF413
:103BC00080510148FEF7B8BB000C014070B50446B7
:103BD0000D460020FFF7F2FF44F02000FFF77EFFC4
:103BE0002846FFF77BFFBDE870400120FFF7E6BFE6
:103BF00070B504460D4616460020FFF7DFFF44F07F
:103C00002000FFF76BFF002404E0285DFFF766FF4C
:103C1000641CE4B2B442F8D3BDE870400120FFF761
:103C2000CDBF70B505460E460020FFF7C7FFA020A8
:103C3000FFF754FF002404E0285DFFF74FFF641CEA
:103C4000E4B2B442F8D3BDE870400120FFF7B6BF3C
:103C500010B5AE2000F0ECF8202000F0E9F80220CA
:103C600000F0E6F8B02000F0E3F8C82000F0E0F83B
:103C7000002000F0DDF8102000F0DAF8402000F01D
:103C8000D7F8812000F0D4F87F2000F0D1F8A120EF
:103C900000F0CEF8A62000F0CBF8A82000F0C8F87D
:103CA0003F2000F0C5F8A42000F0C2F8D32000F0B7
:103CB000BFF8002000F0BCF8D52000F0B9F8802053
:103CC00000F0B6F8D92000F0B3F8F12000F0B0F819
:103CD000DA2000F0ADF8122000F0AAF8DB2000F0A6
:103CE000A7F8402000F0A4F88D2000F0A1F81420DF
:103CF00000F09EF800F008F800F06AF9BDE8104006
:103D0000AF2000F095B800004FF480610148FCF747
:103D1000BABB0000DD1100203CB5059D1C78CDE943
:103D200000455D68E41D5B78E408203A544303FBDA
:103D3000045200F0E4F83CBD2DE9FF4F85B0074682
:103D4000DDF848A091461C46002520786178C01D0A
:103D5000C0084843001DC0B2039045E04FF0000B7F
:103D600009EB0500049000F09EFA80465FEA080027
:103D70003ED000260CE06168039806FB001002901C
:103D8000424602990498FCF7DBFA40B1761CF6B281
:103D9000207AB042EFD8BBF1000F25D112E0207895
:103DA000CDE9000A029A6378121D3846069900F0A0
:103DB000A6F860783844C7B205EB080085B24FF02A
:103DC000010BE8E7B8F1010F15D0CDF800A02022D3
:103DD000E36838460699FFF79FFFE068407838446B
:103DE000C7B205EB080085B219F805000028B5D167
:103DF00009B0BDE8F08FCDF800A019F80520E36800
:103E000038460699FFF788FFE06840783844C7B223
:103E10006D1CADB2E8E7000038B564240B460246DD
:103E2000782102480094FEF761FB38BD540300205E
:103E30000249487002210148FFF7EEBF8C000020C4
:103E40002DE9FC41804615461F46CE0801F00704C7
:103E50000720CDE9000705FA04F0C2B22346414627
:103E6000304600F091F8002C0DD0601EC0B2CDE9B4
:103E70000007C4F1080025FA00F2761CF0B2002316
:103E8000414600F081F8BDE8FC812DE9FC478246FF
:103E90000A9E174699464FEAD10801F0070401F03F
:103EA000070104EB090007FA01F508281CD90720CF
:103EB000CDE90006EAB223465146404600F064F8D8
:103EC00009EB04000938C0B2CDE90006C4F10800CE
:103ED00027FA00F208F1010808F0FF00002351461C
:103EE00000F052F8BDE8FC87401EC0B2CDE90006E4
:103EF000EAB223465146404600F046F8F2E72DE983
:103F0000FF4F82B081460F988A461E46C70800F0D0
:103F100007000190002518E00024049809EB050B28
:103F200000EB05080DE004FB06F0109B10F80820DC
:103F30000AEBC400C1B20BF0FF00FFF781FF641C65
:103F4000E4B2BC42EFD36D1CEDB2B542E4D30198AC
:103F5000002815D006FB07F500240AEBC7070DE083
:103F60001098009004982919019B425C09EB040009
:103F7000F9B2C0B2FFF789FF641CE4B2B442EFD3D8
:103F800006B0BDE8F08F0000F0B5DDE90564082853
:103F900019D2802917D20CB1D243D2B2761CFF2598
:103FA00005FA06F42646C3F108031443DD40064F24
:103FB0002C43064B03EBC010435C2340B243AA439F
:103FC0003A7013434354F0BD8A000020DD110020F5
:103FD00070B5104E40203070002406F1810504F1C8
:103FE000B000C0B2FFF724FF0020FFF721FF102030
:103FF000FFF71EFF05EBC4118022701CFCF7CCF903
:1040000081210448FFF708FF641CE4B2082CE6D3C2
:1040100070BD00005C11002008B507494FF4FA524A
:104020000968B1FBF2F14143009100BF0098411EC5
:104030000091FAD208BD00001400002010B500F075
:1040400043FABDE81040FFF75DBB000010B5122237
:1040500004490548FCF7A0F9FFF752FD0349087031
:1040600010BD0000DD150020381100209D0000204B
:10407000F8B504460E461546334601220221204675
:10408000009500F017F828B1606D40F020006065E1
:104090000320F8BD3346002280212046009500F021
:1040A00009F828B1606D40F0200060650320F8BD7C
:1040B0000020F8BD2DE9F84304460F4691461E4600
:1040C000089DFEF741F9401B351AFEF73DF9804681
:1040D00026480068C0F3CB30684300903AE0701C7B
:1040E00038D0FEF731F9A0EB0800A84203D215B191
:1040F000009858B32BE02068416821F0E00141604E
:104100006068B0F5827F0BD1A068B0F5004F02D097
:10411000B0F5806F04D12068016821F04001016092
:10412000A06AB0F5005F09D12068016821F4005150
:1041300001602068016841F40051016001205034A1
:104140006070002020700320BDE8F88300250098EF
:10415000401E00902068806837EA000004D00020EC
:104160004845BCD10020EFE70120F9E7140000200A
:10417000012000F0D1F9FBE710B5502080F3118841
:10418000BFF34F8FBFF36F8F00F098FE18B1044953
:104190004FF080500860002080F3118810BD0000AF
:1041A00004ED00E030B593B0282109A8FCF78DF9A3
:1041B000142104A8FCF789F90024009401940294C6
:1041C00003940121099108040A900B940D91022592
:1041D000109511904FF4E010129009A8FEF7B6FC6C
:1041E00008B1FDF724FE0F200490059506944FF4C6
:1041F000806007900894022104A8FEF7A3FB08B191
:10420000FDF715FE00954FF4004002906846FEF75A
:1042100013FB002801D0FDF70AFE13B030BD704734
:104220000148FFF742B8000000040020F0B5026822
:10423000194C1A4D1A4E4FF08047A04205D0B84293
:1042400003D0A84201D0B04203D122F070034A68E3
:104250001A43A04205D0B84203D0A84201D0B042D0
:1042600003D122F44073CA681A434B6922F08002DA
:104270001A4302608A68C2620A688262A04201D15F
:1042800009690163012141610169C90703D001691D
:1042900021F001010161F0BD002C0140000400404B
:1042A00000080040FEE70078010601D401207047B5
:1042B0000621B1EB501F01D1022070470E21B1EB56
:1042C000101F01D1032070471E21B1EBD00F01D187
:1042D0000420704700207047490050EAC12018BFF1
:1042E00004204A0D18BF40F0010040F2FF72B2EB0B
:1042F000515F08BF40F00200012808BF0520704749
:104300000907090E002804DB00F1E02080F8001402
:10431000704700F00F0000F1E02080F8141D704796
:1043200030380A2801D2012070470020704770B54C
:1043300006460D4614462946304600F06DFF01D270
:10434000284670BD2146304601F066F801D220466D
:1043500070BD304670BD00002DE9F047FFF7E0F971
:104360002A4C67792079A579E67900F041FF8046EB
:10437000384600F03DFF414601F080F8DFF89090AC
:10438000494600F07DFF234F80463860304600F0FC
:104390002FFF0646284600F02BFF314601F06EF84D
:1043A000494600F06DFF1C4E30604FF07E552A46A6
:1043B00000214046FFF7BBFF38602A4600213068E5
:1043C000FFF7B5FF306012211448FCF75CF8134D7D
:1043D000A520287020786178E27840EA4100A17831
:1043E000890041EAC201084368700D48B0F9001025
:1043F000A81C00F087FA386868603068A86009482F
:104400000068E8605A206874BDE8F087EF15002066
:10441000CDCC4C3D9000002094000020DD15002004
:104420008E00002098000020402817D008DC0128CA
:1044300018D0022818D0042818D020280BD11DE04D
:1044400080280DD0B0F5806F12D0B0F5006F11D07C
:10445000B0F5805F10D04FF0FF30704700207047FC
:1044600001207047022070470320704704207047E6
:1044700005207047062070470720704708207047C6
:10448000FEF718F9FFF78EFEFFF7D4F9FFF758FA99
:10449000FFF776FAFFF762F9FFF786F96420FDF778
:1044A00021FEFFF7D5FBFFF7A7F900F03DF8FEE787
:1044B00001460020842900D0C81C70470149012012
:1044C000087070479C00002010B5FFF79FFA024962
:1044D0000020487010BD00009C0000200FB470B593
:1044E000A2B005460E4629AB802102A8289AFBF708
:1044F0000DFF0024FFF708FC064B02AA31462846B0
:104500000094FFF719FCFFF763FD22B070BC5DF863
:1045100014FB0000805C000810B5002800D10120C9
:1045200000F074FB002010BD10B500F097FB0020D8
:1045300010BD7FB504460D466169B4F90800002935
:1045400010D0A16971B1FFF7B3FFD4E90521CDE91E
:1045500001210090D4E900102B46226900F080FC74
:10456000039010E0FFF7A4FF03A9CDE90001208A22
:104570002B4682B2D4E9001000F040FC012802D0A2
:10458000002004B070BD0398FBE700002DE9F04166
:1045900004460F46174EF5683068001D00F06CFAAF
:1045A00038B9306890F82C10012088403169814377
:1045B0003161601C07D137B13168BDE8F041091D98
:1045C0000D4800F09DBA2C4430684460AC4206D2DD
:1045D0003168B06B091DBDE8F04100F079BA31686F
:1045E000706B091D00F074FAB06A844200D2B462A4
:1045F000BDE8F081180000202405002070B50446B5
:1046000000F08AFA1C4DA868401CA860286810B108
:10461000686938B10CE02C60A868012808D100F066
:10462000F3F805E02868E16AC06A884200D82C6087
:10463000686A401C6862E06A01212A69814011436E
:1046400029610E4900EB800001EB8000211D00F084
:1046500057FA00F081FA686900280CD02868E16AEE
:10466000C06A884207D206494FF080500860BFF305
:104670004F8FBFF36F8F70BD1800002048040020DB
:1046800004ED00E070B50C4D0C4E11E000F044FA62
:10469000F068C468201D00F0EFF9A868401EA8600B
:1046A0006868401E686000F057FA204600F008F87D
:1046B00068680028EAD170BD1800002010050020AD
:1046C00010B5044694F8510000280BD0012811D0F1
:1046D000022814D0502080F31188BFF34F8FBFF30E
:1046E0006F8FFEE7206B00F04DFA2046BDE81040CA
:1046F00000F048BA2046BDE8104000F043BA10BDB3
:104700004FF440610F48420706D0C01D20F007005B
:104710000C49411AC1F540610B4A106000235360F7
:104720000144083921F00701183A11604B600B6011
:104730000B1A436001604068906050604FF0004089
:1047400050617047380500206C000020074E4FF084
:104750008054074DFFF796FF30680128FAD92C6086
:10476000BFF34F8FBFF36F8FF4E7000048040020C2
:1047700004ED00E02DE9F0478246DDE908580A9C87
:104780009946521E206B00EB820020F0070670074E
:1047900007D0502080F31188BFF34F8FBFF36F8F86
:1047A000FEE7002761B1002023180A5C83F834205B
:1047B0000A5C12B1401C1028F6D384F8437001E063
:1047C00084F83470072D00D30625E5626564A7647C
:1047D000201D00F07AF904F1180000F076F9246148
:1047E000C5F10700A0616462E76484F850704A462E
:1047F0005146304600F0F8F82060B8F1000F01D0C3
:10480000C8F80040BDE8F08770B50024124D04EBF5
:10481000840005EB800000F04DF9641C072CF6D3F2
:104820000D488C3000F046F90B48A03000F042F9FA
:104830000948B43000F03EF90748C83000F03AF9B2
:104840000548DC3000F036F9034904488C314163F7
:104850001431816370BD000048040020180000205E
:1048600030B5134900E011460A688242FBD34B6819
:104870005C18844203D140681844486008460D68BB
:1048800044682318AB420DD1094B183B1B689A4270
:1048900006D05268224442600A681268026002E050
:1048A000036000E00260814200D0086030BD00007B
:1048B0006C0000200748416B0968002905D0416B56
:1048C000C968C9684968816270474FF0FF318162E9
:1048D000704700001800002009484068401C07D0BD
:1048E000502080F31188BFF34F8FBFF36F8FFEE727
:1048F000502080F31188BFF34F8FBFF36F8FFEE717
:10490000740000200170090A417070472DE9F041E0
:104910000546002600F0E6F9324F386808B9FFF77F
:10492000EFFE786905424DD18DB1083568070ED08C
:1049300005F00700C0F108000544680707D05020C3
:1049400080F31188BFF34F8FBFF36F8FFEE7CDB3B6
:104950007868854236D8234918310846046801E052
:10496000214604466068A84202D220680028F7D198
:104970003868844226D00E6808362068086060686F
:10498000411B10290ED96019420707D0502080F32F
:104990001188BFF34F8FBFF36F8FFEE741606560F3
:1049A000FFF75EFF61687868401A7860BA689042E5
:1049B00000D2B86078690143616000202060F86827
:1049C000401CF86000F0E2FA700707D0502080F336
:1049D0001188BFF34F8FBFF36F8FFEE73046BDE8FE
:1049E000F08100005400002020384FF08073C36134
:1049F00021F0010181610249416140F8202970479D
:104A0000D94800081CB5FFF719FB0F4C0F4DFFF7F5
:104A1000A3FCFFF71BFB206800F050FBCDE9000171
:104A200000210BA20846FFF759FD286800F046FB5D
:104A3000CDE900010BA210210020FFF74FFD02205D
:104A4000FFF76AFDE3E700009000002094000020DB
:104A5000E5BD93E5898DE9809FE5BAA63A252E321A
:104A600066000000E5BD93E5898DE6978BE8BDAC57
:104A70003A252E32660000000169D0E901329A60C1
:104A8000D0E901235A604A68824201D182684A60B3
:104A9000002202610868401E086008687047000034
:104AA000034B036003F154000860802010607047DE
:104AB000A000002000F1080141604FF0FF32826049
:104AC000C1600161002101607047002101617047F0
:104AD00030B50C68621C02D000F1080202E00269E5
:104AE00004E01A4653681D68A542FAD953684B6022
:104AF00099608A60516008610168491C016030BD9D
:104B000042684A6093688B6093685960916008615D
:104B10000168491C01607047502080F31188BFF381
:104B20004F8FBFF36F8F0A494868401C48600128C7
:104B30000CD10848006810F0FF0F07D0502080F318
:104B40001188BFF34F8FBFF36F8FFEE770470000F0
:104B50007400002004ED00E009494868002806D0F0
:104B6000401E4860002801D180F311887047502012
:104B700080F31188BFF34F8FBFF36F8FFEE7000004
:104B80007400002070B500282AD008380446154D5E
:104B900060686969084207D1502080F31188BFF32B
:104BA0004F8FBFF36F8FFEE722683AB1502080F33A
:104BB0001188BFF34F8FBFF36F8FFEE788436060AC
:104BC00000F090F860686968084468602046FFF764
:104BD00047FE2869401C2861BDE8704000F0D6B946
:104BE00070BD0000540000204FF0E0200021016162
:104BF000816105494FF47A720968B1FBF2F1491EEF
:104C000041610721016170471400002010B5024680
:104C10000020002A12D00F48006B38B1502080F3DA
:104C20001188BFF34F8FBFF36F8FFEE700F05AF884
:104C300000211046FFF7AAFC00F0A8F9002807D1D0
:104C400005494FF080500860BFF34F8FBFF36F8F5F
:104C500010BD00001800002004ED00E010B586B083
:104C600000240594049403AA04A905A8FFF718FFDB
:104C7000DDE90410CDE900410290002315A1174899
:104C8000039A00F0EDF81649C86208B1012000E06F
:104C90000020012809D0401C19D1502080F3118830
:104CA000BFF34F8FBFF36F8FFEE7502080F3118863
:104CB000BFF34F8FBFF36F8F4FF0FF30886201203B
:104CC0004861CC6006B0BDE8104000F043B806B0C3
:104CD00010BD000049444C45000000004D4700084D
:104CE000180000200248016B491C01637047000056
:104CF00018000020154A106B002802D00120D06156
:104D000070470020D0611069B0FA80F0C0F11F0038
:104D10000F4900EB800051F8203073B101EB8000A7
:104D200041684968416000F10803994201D149682E
:104D300041604068C06810607047502080F311885F
:104D4000BFF34F8FBFF36F8FFEE700001800002006
:104D5000480400201CB5264908780190FF200870FF
:104D6000087800909DF800009DF8002000F0F00009
:104D7000904207D0502080F31188BFF34F8FBFF3CC
:104D80006F8FFEE79DF800001A4C00F05000207075
:104D90000720A06006E0A068401EA0609DF800000B
:104DA000400000909DF800000006F4D4A06803289D
:104DB00007D0502080F31188BFF34F8FBFF36F8F60
:104DC000FEE74FF44070A060019808700A4801683F
:104DD00041F470010160016841F070410160FFF72A
:104DE00003FF00206060FBF737FA00201CBD0000C5
:104DF00000E400E07400002020ED00E02DE9FF5FFA
:104E00008146DDE90E788A4616469B46B000FFF7DC
:104E10007DFD054628000AD05420FFF777FD0446A3
:104E20000CB1256304E02846FFF7ACFE00E0002447
:104E30009CB1002084F85100CDE90240CDE9007812
:104E40005B46324651464846FFF794FC2046FFF742
:104E5000D5FB012004B0BDE8F09F4FF0FF30F9E72B
:104E6000F0B585B00746DDE90A600C9C002815D036
:104E7000E4B1542503952063022084F851000020FA
:104E800004ADCDE90240CDE900653846FFF772FC7C
:104E90002046FFF7B3FB049805B0F0BD502080F327
:104EA0001188BFF34F8FBFF36F8FFEE7502080F361
:104EB0001188BFF34F8FBFF36F8FFEE72DE9F041ED
:104EC0000026304F386B002805D0B869401CB86107
:104ED0003046BDE8F081FD686D1CFD609DB9786BC2
:104EE000006838B1502080F31188BFF34F8FBFF3B3
:104EF0006F8FFEE7786BB96B7963B863386A401CD3
:104F00003862FFF7D7FCB86ADFF87C8085420DD3A2
:104F1000786B006838B1786BC068C4686068854297
:104F200012D2B86202E04FF0FF30B8623868C06A4F
:104F300000EB800058F82000012800D90126F8690C
:104F40000028C5D00126C3E7201DFFF795FDA06A04
:104F500018B104F11800FFF78FFDE06A01213A69EA
:104F600081401143396100EB800008EB8000211D76
:104F7000FFF7C6FDE06A3968C96A8842C8D30126CE
:104F8000C6E7000018000020480400202DE9F04189
:104F9000002400272D4D286B002807D0FFF7BCFD0B
:104FA000286B401E2863286B40B14AE0502080F3F4
:104FB0001188BFF34F8FBFF36F8FFEE7A868E8B388
:104FC000DFF88C8001261EE0D8F80C00C46804F1DC
:104FD0001800FFF751FD201DFFF74EFDE06A2A691A
:104FE00006FA00F111432961194900EB8000B43938
:104FF00001EB8000211DFFF783FDE06A2968C96A83
:10500000884200D3EE61D8F800000028DCD10CB152
:10501000FFF750FCAC6944B1FFF750FF00B1EE61FF
:10502000641E002CF8D10020A861E86930B1012786
:10503000084938070860BFF34F8F00E001E0BFF375
:105040006F8FFFF789FD3846BDE8F081180000201A
:10505000FC04002004ED00E010B500290AD0087817
:10506000002807D005487844FCF77EFA002801D0D4
:10507000002010BD0248784410BD00005E0D000005
:10508000560D000010B500290AD00878002807D076
:1050900005487844FCF768FA002801D0002010BDCC
:1050A0000248784410BD00004E0D0000460D00007F
:1050B0000808A0F500114FEA3101704743004FEA9C
:1050C000D30C4FEA3C0C43401FBF40070CF160512A
:1050D00013F0FE4F70471CF0006F03D100200CF05E
:1050E000004170470CF0004343EA507010B540EAAD
:1050F000CC0000F046F900BF000000924FEA00012A
:10510000FFF7D6BF4FF000414FF00000A1F500219E
:105110007047000090EA010F48BF81F0004100F1A4
:10512000B481421A3CBF801A89184FEAD0524FF01E
:105130007F4C1CEA410FA2EBD15318BF9CEA026FCF
:1051400000F03B804FF0004C4CEA00204CEA01217B
:1051500021FA03FC10EB0C0C1ED202F1FF325FEAC5
:105160001C2040EBC25038BF70471CF07F0F4FEA45
:10517000400C18BFBCF17F4F38BF7047C3F120030C
:10518000994008BF20F00100BCF17F4F38BF704745
:10519000A0F1C04000F03BB94FEA3C00000A40EBF0
:1051A000C25028BF1CF0FF0F4FEA400CE6D018BFDA
:1051B000BCF17F4F38BF7047EAE79CEA026F05D029
:1051C00010EA5C0F08BF00F00040704710B500F017
:1051D000D8F800BF64FBBE3E401058BFC0F140404D
:1051E000491058BFC1F140418142EFF30080704740
:1051F000B0FA80F310FA03F2C3F19D030AD0D90587
:1052000001EB1220530638BF704700F1010008BFC0
:1052100020F001007047000050EA010C00F11380FB
:105220001CF5000F58BFBCF5000F01D48842704731
:1052300007D710F5000F58BF11F5000F15D488429D
:105240007047894270471CF5000F04D5BCF5000F6C
:10525000F7D5814270474FF0807C1CEB400F38BF80
:105260001CEB410F01D28142704710B500F089F864
:10527000922449004FF000504FF08051FFF7ACBF2F
:105280004FF47F0C1CEAD0121EBF1CEAD11392EA25
:105290000C0F93EA0C0F00F0478090EA010F48BF13
:1052A00042F480724FF0004C4CEA00204CEA01219D
:1052B00002EB0302A0FB0113A2F50002002918BFB4
:1052C00043F001035B0028BF4FEA330342EB224265
:1052D0005FEA132C4CEBC2502EBFBCEB436FB2F510
:1052E0007C0F70474FEA036CBCF1004F08BF20F001
:1052F0000100B2F57C0F38BF70470BD582F0FF027A
:1053000012F5803FC8BF704700F1C040D8BF00F021
:105310000040704700F5000C5FEA4C0C48BF704736
:10532000B0F1C04000F073B890EA010F0CEAD1135D
:1053300048BF42F48072624538BF634504D280EAB8
:10534000010000F00040704710B500F01AF800BFEF
:105350008900013E00F007B800F009B85FEA410C8F
:105360005FEA1C6C08D080EA010000F050B85FEAE8
:10537000400C5FEA1C6CF6D14FF00040A0F58000B5
:1053800070470EF1020E2EF0030E5EF8044B24421D
:1053900004D44FEA4102B2F17F4F11D84FEA4003E3
:1053A000B3F17F4F0CD80ED14FEAD07CB2F17F4FD2
:1053B0000CEB4C0C0CF1020C08BF4CEBD17C04E064
:1053C0004FF0080C01E04FEAD17C0CEB4C0324FABF
:1053D00003F404F00704B4F1040C06D20EEB840CC1
:1053E000BDE810404CF0010C6047DFE80CF0070806
:1053F00002024FF00040A0F5800010BD08464200B8
:1054000018BFD2F1807288BF00F0004010BDFF21AC
:1054100041EAD050C005704751EA000C00F11380FA
:105420001CF5000F58BFBCF5000F01D48142704736
:1054300007D711F5000F58BF10F5000F15D48142A2
:105440007047894270471CF5000F04D5BCF5000F6A
:10545000F7D5884270474FF0807C1CEB410F38BF76
:105460001CEB400F01D28842704780EA010081EABC
:10547000000180EA0100FFF7F8BE000090EA010F8A
:1054800048BF81F000413FF54CAE421A04D882F08B
:105490000042A0EB020011444FEAD0524FF07F4C83
:1054A0001CEA410FA2EBD15318BF9CEA026F4AD00D
:1054B0004FF0004C4CEA00204CEA012121FA03FC99
:1054C000B0EB0C0C0FD412F0FE0F36D05FEA4C009C
:1054D0001DD5001240EBC25038BF70471CF03F0F83
:1054E00018BF70470BE0A2F101025FEA1C2040EBFD
:1054F000C25038BF70471CF07F0F18BF7047C3F110
:105500002003994014BF401E20F00100704780081E
:105510004FEA122308BF7047B0FA80FCA2EB0C02DE
:10552000CCF1280C60FA0CF093EA122F04BF00EBC8
:10553000C25070474FEAC3707047130A5FEADC102D
:1055400008BF7047F6E79CEA026F04D010EA5C0FD0
:1055500008BF0020704710B5FFF713FF40DFF63E8D
:1055600081F000407047FBF70CBCFBF741BD000029
:105570008C5D000871410008000000000000000080
:10558000800000000000000000000000985D00089E
:10559000054A000800000000000000008000000034
:1055A00000000000000000000102020304050607DD
:1055B00008090A0B0C0D0E0F10100000000000006F
:1055C00000000102030406070809000000000102B0
:1055D00003040000000000000000000000000000C4
:1055E0000000000000F80000000000000033300060
:1055F000000000100C06100C060000000000000067
:10560000000040C07840C0784000043F04043F04DC
:105610000400007088FC08300000001820FF211EE4
:105620000000F008F000E018000000211C031E211B
:105630001E0000F00888700000001E212324192796
:10564000211010160E0000000000000000000000F5
:105650000000000000E0180402000000000718200D
:10566000400000020418E00000000040201807007D
:105670000000404080F0804040000202010F010223
:105680000200000000F0000000000101011F010104
:105690000100000000000000000080B07000000069
:1056A00000000000000000000000000101010101F5
:1056B0000101000000000000000000303000000088
:1056C000000000000000806018040060180601005F
:1056D000000000E010080810E000000F102020106B
:1056E0000F00001010F8000000000020203F2020D4
:1056F000000000700808088870000030282422216B
:105700003000003008888848300000182020201120
:105710000E000000C02010F8000000070424243F01
:10572000240000F8088888080800001921202011AA
:105730000E0000E0108888180000000F11202011D2
:105740000E0000380808C83808000000003F0000BC
:1057500000000070880808887000001C22212122A7
:105760001C0000E010080810E000000031222211A7
:105770000F00000000C0C00000000000003030003A
:1057800000000000008000000000000080600000B9
:1057900000000000804020100800000102040810F2
:1057A0002000404040404040400004040404040401
:1057B00004000008102040800000002010080402AF
:1057C0000100007048080808F000000000303601B1
:1057D0000000C030C828E810E00007182724231470
:1057E0000B000000C038E0000000203C230202272C
:1057F000382008F8888888700000203F2020201179
:105800000E00C030080808083800071820202010B3
:10581000080008F808080810E000203F20202010A9
:105820000F0008F88888E8081000203F2020232077
:10583000180008F88888E8081000203F20000300BE
:105840000000C03008080838000007182020221E79
:10585000020008F808000008F808203F2101012193
:105860003F20000808F8080800000020203F202002
:10587000000000000808F8080800C08080807F0051
:10588000000008F888C028180800203F20012638AA
:10589000200008F8080000000000203F2020202001
:1058A000300008F8F800F8F80800203F003F003FFB
:1058B000200008F830C00008F808203F2000071832
:1058C0003F00E01008080810E0000F102020201012
:1058D0000F0008F808080808F000203F2101010126
:1058E0000000E01008080810E0000F1824243850C9
:1058F0004F0008F8888888887000203F2000030C3B
:105900003020007088080808380000382021212243
:105910001C00180808F8080818000000203F2000A4
:10592000000008F808000008F808001F20202020C8
:105930001F000878880000C83808000007380E01EA
:105940000000F80800F80008F800033C0700073CD6
:105950000300081868808068180820302C03032C86
:1059600030200838C800C83808000000203F200058
:10597000000010080808C838080020382621202018
:105980001800000000FE020202000000007F4040FC
:105990004000000C30C0000000000000000106388C
:1059A000C00000020202FE000000004040407F00F4
:1059B00000000000040202020400000000000000D9
:1059C00000000000000000000000808080808080D7
:1059D00080800002020400000000000000000000BF
:1059E0000000000080808080000000192422222214
:1059F0003F2008F8008080000000003F11202011A7
:105A00000E000000008080800000000E1120202089
:105A10001100000000808088F800000E1120201086
:105A20003F200000808080800000001F2222222270
:105A30001300008080F0888888180020203F2020F4
:105A400000000000808080808000006B949494931C
:105A5000600008F8008080800000203F21000020C6
:105A60003F2000809898000000000020203F202068
:105A70000000000000809898000000C08080807FB7
:105A8000000008F8000080808000203F24022D30B4
:105A90002000000808F8000000000020203F20201F
:105AA00000008080808080808000203F20003F2098
:105AB000003F8080008080800000203F2100002087
:105AC0003F200000808080800000001F20202020D8
:105AD0001F00808000808000000080FFA120201136
